{
  "abi": [
    {
      "type": "constructor",
      "inputs": [],
      "stateMutability": "nonpayable"
    },
    {
      "type": "function",
      "name": "DIRECTORY_ADDRESS",
      "inputs": [],
      "outputs": [
        {
          "name": "",
          "type": "address",
          "internalType": "address"
        }
      ],
      "stateMutability": "view"
    },
    {
      "type": "function",
      "name": "DOMAIN_SEPARATOR",
      "inputs": [],
      "outputs": [
        {
          "name": "",
          "type": "bytes32",
          "internalType": "bytes32"
        }
      ],
      "stateMutability": "view"
    },
    {
      "type": "function",
      "name": "INTELLIGENCE_ADDRESS",
      "inputs": [],
      "outputs": [
        {
          "name": "",
          "type": "address",
          "internalType": "address"
        }
      ],
      "stateMutability": "view"
    },
    {
      "type": "function",
      "name": "admin",
      "inputs": [],
      "outputs": [
        {
          "name": "",
          "type": "address",
          "internalType": "address"
        }
      ],
      "stateMutability": "view"
    },
    {
      "type": "function",
      "name": "allowance",
      "inputs": [
        {
          "name": "spender",
          "type": "address",
          "internalType": "address"
        }
      ],
      "outputs": [
        {
          "name": "",
          "type": "uint256",
          "internalType": "uint256"
        }
      ],
      "stateMutability": "view"
    },
    {
      "type": "function",
      "name": "approve",
      "inputs": [
        {
          "name": "spender",
          "type": "address",
          "internalType": "address"
        },
        {
          "name": "amount",
          "type": "suint256",
          "internalType": "suint256"
        }
      ],
      "outputs": [
        {
          "name": "",
          "type": "bool",
          "internalType": "bool"
        }
      ],
      "stateMutability": "nonpayable"
    },
    {
      "type": "function",
      "name": "balance",
      "inputs": [],
      "outputs": [
        {
          "name": "",
          "type": "uint256",
          "internalType": "uint256"
        }
      ],
      "stateMutability": "view"
    },
    {
      "type": "function",
      "name": "burn",
      "inputs": [
        {
          "name": "from",
          "type": "address",
          "internalType": "address"
        },
        {
          "name": "amount",
          "type": "suint256",
          "internalType": "suint256"
        }
      ],
      "outputs": [],
      "stateMutability": "nonpayable"
    },
    {
      "type": "function",
      "name": "decimals",
      "inputs": [],
      "outputs": [
        {
          "name": "",
          "type": "uint8",
          "internalType": "uint8"
        }
      ],
      "stateMutability": "view"
    },
    {
      "type": "function",
      "name": "directory",
      "inputs": [],
      "outputs": [
        {
          "name": "",
          "type": "address",
          "internalType": "contract IDirectory"
        }
      ],
      "stateMutability": "view"
    },
    {
      "type": "function",
      "name": "getTotalSupply",
      "inputs": [],
      "outputs": [
        {
          "name": "",
          "type": "uint256",
          "internalType": "uint256"
        }
      ],
      "stateMutability": "view"
    },
    {
      "type": "function",
      "name": "intelligence",
      "inputs": [],
      "outputs": [
        {
          "name": "",
          "type": "address",
          "internalType": "contract IIntelligence"
        }
      ],
      "stateMutability": "view"
    },
    {
      "type": "function",
      "name": "mint",
      "inputs": [
        {
          "name": "to",
          "type": "address",
          "internalType": "address"
        },
        {
          "name": "amount",
          "type": "suint256",
          "internalType": "suint256"
        }
      ],
      "outputs": [],
      "stateMutability": "nonpayable"
    },
    {
      "type": "function",
      "name": "name",
      "inputs": [],
      "outputs": [
        {
          "name": "",
          "type": "string",
          "internalType": "string"
        }
      ],
      "stateMutability": "view"
    },
    {
      "type": "function",
      "name": "nonces",
      "inputs": [
        {
          "name": "",
          "type": "address",
          "internalType": "address"
        }
      ],
      "outputs": [
        {
          "name": "",
          "type": "uint256",
          "internalType": "uint256"
        }
      ],
      "stateMutability": "view"
    },
    {
      "type": "function",
      "name": "permit",
      "inputs": [
        {
          "name": "owner",
          "type": "address",
          "internalType": "address"
        },
        {
          "name": "spender",
          "type": "address",
          "internalType": "address"
        },
        {
          "name": "value",
          "type": "suint256",
          "internalType": "suint256"
        },
        {
          "name": "deadline",
          "type": "uint256",
          "internalType": "uint256"
        },
        {
          "name": "v",
          "type": "uint8",
          "internalType": "uint8"
        },
        {
          "name": "r",
          "type": "bytes32",
          "internalType": "bytes32"
        },
        {
          "name": "s",
          "type": "bytes32",
          "internalType": "bytes32"
        }
      ],
      "outputs": [],
      "stateMutability": "nonpayable"
    },
    {
      "type": "function",
      "name": "symbol",
      "inputs": [],
      "outputs": [
        {
          "name": "",
          "type": "string",
          "internalType": "string"
        }
      ],
      "stateMutability": "view"
    },
    {
      "type": "function",
      "name": "transfer",
      "inputs": [
        {
          "name": "to",
          "type": "address",
          "internalType": "address"
        },
        {
          "name": "amount",
          "type": "suint256",
          "internalType": "suint256"
        }
      ],
      "outputs": [
        {
          "name": "",
          "type": "bool",
          "internalType": "bool"
        }
      ],
      "stateMutability": "nonpayable"
    },
    {
      "type": "function",
      "name": "transferFrom",
      "inputs": [
        {
          "name": "from",
          "type": "address",
          "internalType": "address"
        },
        {
          "name": "to",
          "type": "address",
          "internalType": "address"
        },
        {
          "name": "amount",
          "type": "suint256",
          "internalType": "suint256"
        }
      ],
      "outputs": [
        {
          "name": "",
          "type": "bool",
          "internalType": "bool"
        }
      ],
      "stateMutability": "nonpayable"
    },
    {
      "type": "event",
      "name": "Approval",
      "inputs": [
        {
          "name": "owner",
          "type": "address",
          "indexed": true,
          "internalType": "address"
        },
        {
          "name": "spender",
          "type": "address",
          "indexed": true,
          "internalType": "address"
        },
        {
          "name": "encryptKeyHash",
          "type": "bytes32",
          "indexed": true,
          "internalType": "bytes32"
        },
        {
          "name": "encryptedAmount",
          "type": "bytes",
          "indexed": false,
          "internalType": "bytes"
        }
      ],
      "anonymous": false
    },
    {
      "type": "event",
      "name": "Transfer",
      "inputs": [
        {
          "name": "from",
          "type": "address",
          "indexed": true,
          "internalType": "address"
        },
        {
          "name": "to",
          "type": "address",
          "indexed": true,
          "internalType": "address"
        },
        {
          "name": "encryptKeyHash",
          "type": "bytes32",
          "indexed": true,
          "internalType": "bytes32"
        },
        {
          "name": "encryptedAmount",
          "type": "bytes",
          "indexed": false,
          "internalType": "bytes"
        }
      ],
      "anonymous": false
    }
  ],
  "bytecode": {
    "object": "0x60e060405234801561000f575f5ffd5b506040518060400160405280600981526020017f54657374535243323000000000000000000000000000000000000000000000008152506040518060400160405280600481526020017f54535243000000000000000000000000000000000000000000000000000000008152506012825f908161008c91906103d7565b50816001908161009c91906103d7565b508060ff1660808160ff16815250504660a081815250506100c161011060201b60201c565b60c081815250505050503360065f6101000a81548173ffffffffffffffffffffffffffffffffffffffff021916908373ffffffffffffffffffffffffffffffffffffffff16021790555061060f565b5f7f8b73c3c69bb8fe3d512ecc4cf759cc79239f7b179b0ffacaa9a75d522b39400f5f6040516101409190610542565b60405180910390207fc89efdaa54c0f20c7adf612882df0950f5a951637e0307cdcb4c672f298b8bc6463060405160200161017f9594939291906105be565b60405160208183030381529060405280519060200120905090565b5f81519050919050565b7f4e487b71000000000000000000000000000000000000000000000000000000005f52604160045260245ffd5b7f4e487b71000000000000000000000000000000000000000000000000000000005f52602260045260245ffd5b5f600282049050600182168061021557607f821691505b602082108103610228576102276101d1565b5b50919050565b5f819050815f5260205f209050919050565b5f6020601f8301049050919050565b5f82821b905092915050565b5f6008830261028a7fffffffffffffffffffffffffffffffffffffffffffffffffffffffffffffffff8261024f565b610294868361024f565b95508019841693508086168417925050509392505050565b5f819050919050565b5f819050919050565b5f6102d86102d36102ce846102ac565b6102b5565b6102ac565b9050919050565b5f819050919050565b6102f1836102be565b6103056102fd826102df565b84845461025b565b825550505050565b5f5f905090565b61031c61030d565b6103278184846102e8565b505050565b5b8181101561034a5761033f5f82610314565b60018101905061032d565b5050565b601f82111561038f576103608161022e565b61036984610240565b81016020851015610378578190505b61038c61038485610240565b83018261032c565b50505b505050565b5f82821c905092915050565b5f6103af5f1984600802610394565b1980831691505092915050565b5f6103c783836103a0565b9150826002028217905092915050565b6103e08261019a565b67ffffffffffffffff8111156103f9576103f86101a4565b5b61040382546101fe565b61040e82828561034e565b5f60209050601f83116001811461043f575f841561042d578287015190505b61043785826103bc565b86555061049e565b601f19841661044d8661022e565b5f5b828110156104745784890151825560018201915060208501945060208101905061044f565b86831015610491578489015161048d601f8916826103a0565b8355505b6001600288020188555050505b505050505050565b5f81905092915050565b5f819050815f5260205f209050919050565b5f81546104ce816101fe565b6104d881866104a6565b9450600182165f81146104f2576001811461050757610539565b60ff1983168652811515820286019350610539565b610510856104b0565b5f5b8381101561053157815481890152600182019150602081019050610512565b838801955050505b50505092915050565b5f61054d82846104c2565b915081905092915050565b5f819050919050565b61056a81610558565b82525050565b610579816102ac565b82525050565b5f73ffffffffffffffffffffffffffffffffffffffff82169050919050565b5f6105a88261057f565b9050919050565b6105b88161059e565b82525050565b5f60a0820190506105d15f830188610561565b6105de6020830187610561565b6105eb6040830186610561565b6105f86060830185610570565b61060560808301846105af565b9695505050505050565b60805160a05160c05161260d6106395f395f61052a01525f6104f601525f6104d1015261260d5ff3fe608060405234801561000f575f5ffd5b506004361061011f575f3560e01c806395d89b41116100ab578063bdda94131161006f578063bdda94131461031f578063c41c2f241461033b578063c4e41b2214610359578063d590f35f14610377578063f851a440146103935761011f565b806395d89b4114610277578063b10c99b514610295578063b69ef8a8146102c5578063b9b8dea0146102e3578063ba1ab291146103015761011f565b80633d27862e116100f25780633d27862e146101ad5780633e5beab9146101cb57806368787310146101fb5780637ecebe00146102175780639552331e146102475761011f565b806306fdde03146101235780632e62b8c814610141578063313ce567146101715780633644e5151461018f575b5f5ffd5b61012b6103b1565b60405161013891906117e2565b60405180910390f35b61015b600480360381019061015691906118a0565b61043c565b60405161016891906118f8565b60405180910390f35b6101796104cf565b604051610186919061192c565b60405180910390f35b6101976104f3565b6040516101a4919061195d565b60405180910390f35b6101b561054f565b6040516101c291906119d1565b60405180910390f35b6101e560048036038101906101e091906119ea565b610567565b6040516101f29190611a2d565b60405180910390f35b610215600480360381019061021091906118a0565b6105e8565b005b610231600480360381019061022c91906119ea565b610685565b60405161023e9190611a2d565b60405180910390f35b610261600480360381019061025c9190611a46565b61069a565b60405161026e91906118f8565b60405180910390f35b61027f61087b565b60405161028c91906117e2565b60405180910390f35b6102af60048036038101906102aa91906118a0565b610907565b6040516102bc91906118f8565b60405180910390f35b6102cd6109ba565b6040516102da9190611a2d565b60405180910390f35b6102eb6109fe565b6040516102f89190611aa5565b60405180910390f35b610309610a16565b6040516103169190611aa5565b60405180910390f35b61033960048036038101906103349190611b3c565b610a2e565b005b610343610cc1565b6040516103509190611bf9565b60405180910390f35b610361610cd9565b60405161036e9190611a2d565b60405180910390f35b610391600480360381019061038c91906118a0565b610ce7565b005b61039b610d84565b6040516103a89190611aa5565b60405180910390f35b5f80546103bd90611c3f565b80601f01602080910402602001604051908101604052809291908181526020018280546103e990611c3f565b80156104345780601f1061040b57610100808354040283529160200191610434565b820191905f5260205f20905b81548152906001019060200180831161041757829003601f168201915b505050505081565b5f8160045f3373ffffffffffffffffffffffffffffffffffffffff1673ffffffffffffffffffffffffffffffffffffffff1681526020019081526020015f205f8573ffffffffffffffffffffffffffffffffffffffff1673ffffffffffffffffffffffffffffffffffffffff1681526020019081526020015f208190b1506104c5338484610da9565b6001905092915050565b7f000000000000000000000000000000000000000000000000000000000000000081565b5f7f00000000000000000000000000000000000000000000000000000000000000004614610528576105236111d3565b61054a565b7f00000000000000000000000000000000000000000000000000000000000000005b905090565b73100000000000000000000000000000000000000581565b5f60045f3373ffffffffffffffffffffffffffffffffffffffff1673ffffffffffffffffffffffffffffffffffffffff1681526020019081526020015f205f8373ffffffffffffffffffffffffffffffffffffffff1673ffffffffffffffffffffffffffffffffffffffff1681526020019081526020015f20b09050919050565b60065f9054906101000a900473ffffffffffffffffffffffffffffffffffffffff1673ffffffffffffffffffffffffffffffffffffffff163373ffffffffffffffffffffffffffffffffffffffff1614610677576040517f08c379a000000000000000000000000000000000000000000000000000000000815260040161066e90611cb9565b60405180910390fd5b610681828261125d565b5050565b6005602052805f5260405f205f915090505481565b5f5f60045f8673ffffffffffffffffffffffffffffffffffffffff1673ffffffffffffffffffffffffffffffffffffffff1681526020019081526020015f205f3373ffffffffffffffffffffffffffffffffffffffff1673ffffffffffffffffffffffffffffffffffffffff1681526020019081526020015f20b090507fffffffffffffffffffffffffffffffffffffffffffffffffffffffffffffffff81146107c757828161074a9190611d04565b60045f8773ffffffffffffffffffffffffffffffffffffffff1673ffffffffffffffffffffffffffffffffffffffff1681526020019081526020015f205f3373ffffffffffffffffffffffffffffffffffffffff1673ffffffffffffffffffffffffffffffffffffffff1681526020019081526020015f208190b1505b8260035f8773ffffffffffffffffffffffffffffffffffffffff1673ffffffffffffffffffffffffffffffffffffffff1681526020019081526020015f205f8282b06108139190611d04565b9250508190b1508260035f8673ffffffffffffffffffffffffffffffffffffffff1673ffffffffffffffffffffffffffffffffffffffff1681526020019081526020015f205f8282b0019250508190b15061086f8585856112ce565b60019150509392505050565b6001805461088890611c3f565b80601f01602080910402602001604051908101604052809291908181526020018280546108b490611c3f565b80156108ff5780601f106108d6576101008083540402835291602001916108ff565b820191905f5260205f20905b8154815290600101906020018083116108e257829003601f168201915b505050505081565b5f8160035f3373ffffffffffffffffffffffffffffffffffffffff1673ffffffffffffffffffffffffffffffffffffffff1681526020019081526020015f205f8282b06109549190611d04565b9250508190b1508160035f8573ffffffffffffffffffffffffffffffffffffffff1673ffffffffffffffffffffffffffffffffffffffff1681526020019081526020015f205f8282b0019250508190b1506109b03384846112ce565b6001905092915050565b5f60035f3373ffffffffffffffffffffffffffffffffffffffff1673ffffffffffffffffffffffffffffffffffffffff1681526020019081526020015f20b0905090565b73100000000000000000000000000000000000000581565b73100000000000000000000000000000000000000481565b42841015610a71576040517f08c379a0000000000000000000000000000000000000000000000000000000008152600401610a6890611d81565b60405180910390fd5b5f6001610a7c6104f3565b7f6e71edae12b1b97f4d1f60370fef10105fa2faae0126114a169c64845d6126c98a8a8a60055f8f73ffffffffffffffffffffffffffffffffffffffff1673ffffffffffffffffffffffffffffffffffffffff1681526020019081526020015f205f815480929190600101919050558b604051602001610b0196959493929190611dae565b60405160208183030381529060405280519060200120604051602001610b28929190611e81565b604051602081830303815290604052805190602001208585856040515f8152602001604052604051610b5d9493929190611eb7565b6020604051602081039080840390855afa158015610b7d573d5f5f3e3d5ffd5b5050506020604051035190505f73ffffffffffffffffffffffffffffffffffffffff168173ffffffffffffffffffffffffffffffffffffffff1614158015610bf057508773ffffffffffffffffffffffffffffffffffffffff168173ffffffffffffffffffffffffffffffffffffffff16145b610c2f576040517f08c379a0000000000000000000000000000000000000000000000000000000008152600401610c2690611f44565b60405180910390fd5b8560045f8373ffffffffffffffffffffffffffffffffffffffff1673ffffffffffffffffffffffffffffffffffffffff1681526020019081526020015f205f8973ffffffffffffffffffffffffffffffffffffffff1673ffffffffffffffffffffffffffffffffffffffff1681526020019081526020015f208190b15050610cb8878787610da9565b50505050505050565b73100000000000000000000000000000000000000481565b5f610ce26116f8565b905090565b60065f9054906101000a900473ffffffffffffffffffffffffffffffffffffffff1673ffffffffffffffffffffffffffffffffffffffff163373ffffffffffffffffffffffffffffffffffffffff1614610d76576040517f08c379a0000000000000000000000000000000000000000000000000000000008152600401610d6d90611cb9565b60405180910390fd5b610d808282611701565b5050565b60065f9054906101000a900473ffffffffffffffffffffffffffffffffffffffff1681565b5f5f73100000000000000000000000000000000000000573ffffffffffffffffffffffffffffffffffffffff16634a8fcf9a84604051602001610dec9190611f82565b6040516020818303038152906040526040518263ffffffff1660e01b8152600401610e179190611fee565b5f604051808303815f875af1158015610e32573d5f5f3e3d5ffd5b505050506040513d5f823e3d601f19601f82011682018060405250810190610e5a91906122e2565b915091505f5f90505b8151811015610f1357828181518110610e7f57610e7e612358565b5b60200260200101518573ffffffffffffffffffffffffffffffffffffffff168773ffffffffffffffffffffffffffffffffffffffff167f8ef65e17890b61a4796f8848475471f8895cd361b1de7e7260a6800ba0623f40858581518110610ee957610ee8612358565b5b6020026020010151604051610efe9190611fee565b60405180910390a48080600101915050610e63565b5073100000000000000000000000000000000000000473ffffffffffffffffffffffffffffffffffffffff16638b2f9fd1856040518263ffffffff1660e01b8152600401610f619190611aa5565b602060405180830381865afa158015610f7c573d5f5f3e3d5ffd5b505050506040513d601f19601f82011682018060405250810190610fa091906123af565b15611155575f73100000000000000000000000000000000000000473ffffffffffffffffffffffffffffffffffffffff1663eefbaf18866040518263ffffffff1660e01b8152600401610ff39190611aa5565b602060405180830381865afa15801561100e573d5f5f3e3d5ffd5b505050506040513d601f19601f8201168201806040525081019061103291906123da565b90505f73100000000000000000000000000000000000000473ffffffffffffffffffffffffffffffffffffffff1663b7f5f9b787876040516020016110779190611f82565b6040516020818303038152906040526040518363ffffffff1660e01b81526004016110a3929190612405565b5f604051808303815f875af11580156110be573d5f5f3e3d5ffd5b505050506040513d5f823e3d601f19601f820116820180604052508101906110e69190612433565b9050818673ffffffffffffffffffffffffffffffffffffffff168873ffffffffffffffffffffffffffffffffffffffff167f8ef65e17890b61a4796f8848475471f8895cd361b1de7e7260a6800ba0623f40846040516111469190611fee565b60405180910390a450506111cc565b5f5f1b8473ffffffffffffffffffffffffffffffffffffffff168673ffffffffffffffffffffffffffffffffffffffff167f8ef65e17890b61a4796f8848475471f8895cd361b1de7e7260a6800ba0623f4060405180602001604052805f8152506040516111c39190611fee565b60405180910390a45b5050505050565b5f7f8b73c3c69bb8fe3d512ecc4cf759cc79239f7b179b0ffacaa9a75d522b39400f5f6040516112039190612516565b60405180910390207fc89efdaa54c0f20c7adf612882df0950f5a951637e0307cdcb4c672f298b8bc6463060405160200161124295949392919061252c565b60405160208183030381529060405280519060200120905090565b8060035f8473ffffffffffffffffffffffffffffffffffffffff1673ffffffffffffffffffffffffffffffffffffffff1681526020019081526020015f205f8282b06112a99190611d04565b9250508190b1508060025f8282b0039250508190b1506112ca825f836112ce565b5050565b5f5f73100000000000000000000000000000000000000573ffffffffffffffffffffffffffffffffffffffff16634a8fcf9a846040516020016113119190611f82565b6040516020818303038152906040526040518263ffffffff1660e01b815260040161133c9190611fee565b5f604051808303815f875af1158015611357573d5f5f3e3d5ffd5b505050506040513d5f823e3d601f19601f8201168201806040525081019061137f91906122e2565b915091505f5f90505b8151811015611438578281815181106113a4576113a3612358565b5b60200260200101518573ffffffffffffffffffffffffffffffffffffffff168773ffffffffffffffffffffffffffffffffffffffff167f80ffa007a69623ef13594f5e8178eee6c4ef2d0cba74c08329e879f695b7d3f685858151811061140e5761140d612358565b5b60200260200101516040516114239190611fee565b60405180910390a48080600101915050611388565b5073100000000000000000000000000000000000000473ffffffffffffffffffffffffffffffffffffffff16638b2f9fd1856040518263ffffffff1660e01b81526004016114869190611aa5565b602060405180830381865afa1580156114a1573d5f5f3e3d5ffd5b505050506040513d601f19601f820116820180604052508101906114c591906123af565b1561167a575f73100000000000000000000000000000000000000473ffffffffffffffffffffffffffffffffffffffff1663eefbaf18866040518263ffffffff1660e01b81526004016115189190611aa5565b602060405180830381865afa158015611533573d5f5f3e3d5ffd5b505050506040513d601f19601f8201168201806040525081019061155791906123da565b90505f73100000000000000000000000000000000000000473ffffffffffffffffffffffffffffffffffffffff1663b7f5f9b7878760405160200161159c9190611f82565b6040516020818303038152906040526040518363ffffffff1660e01b81526004016115c8929190612405565b5f604051808303815f875af11580156115e3573d5f5f3e3d5ffd5b505050506040513d5f823e3d601f19601f8201168201806040525081019061160b9190612433565b9050818673ffffffffffffffffffffffffffffffffffffffff168873ffffffffffffffffffffffffffffffffffffffff167f80ffa007a69623ef13594f5e8178eee6c4ef2d0cba74c08329e879f695b7d3f68460405161166b9190611fee565b60405180910390a450506116f1565b5f5f1b8473ffffffffffffffffffffffffffffffffffffffff168673ffffffffffffffffffffffffffffffffffffffff167f80ffa007a69623ef13594f5e8178eee6c4ef2d0cba74c08329e879f695b7d3f660405180602001604052805f8152506040516116e89190611fee565b60405180910390a45b5050505050565b5f6002b0905090565b8060025f8282b0611712919061257d565b9250508190b1508060035f8473ffffffffffffffffffffffffffffffffffffffff1673ffffffffffffffffffffffffffffffffffffffff1681526020019081526020015f205f8282b0019250508190b15061176e5f83836112ce565b5050565b5f81519050919050565b5f82825260208201905092915050565b8281835e5f83830152505050565b5f601f19601f8301169050919050565b5f6117b482611772565b6117be818561177c565b93506117ce81856020860161178c565b6117d78161179a565b840191505092915050565b5f6020820190508181035f8301526117fa81846117aa565b905092915050565b5f604051905090565b5f5ffd5b5f5ffd5b5f73ffffffffffffffffffffffffffffffffffffffff82169050919050565b5f61183c82611813565b9050919050565b61184c81611832565b8114611856575f5ffd5b50565b5f8135905061186781611843565b92915050565b5f819050919050565b61187f8161186d565b8114611889575f5ffd5b50565b5f8135905061189a81611876565b92915050565b5f5f604083850312156118b6576118b561180b565b5b5f6118c385828601611859565b92505060206118d48582860161188c565b9150509250929050565b5f8115159050919050565b6118f2816118de565b82525050565b5f60208201905061190b5f8301846118e9565b92915050565b5f60ff82169050919050565b61192681611911565b82525050565b5f60208201905061193f5f83018461191d565b92915050565b5f819050919050565b61195781611945565b82525050565b5f6020820190506119705f83018461194e565b92915050565b5f819050919050565b5f61199961199461198f84611813565b611976565b611813565b9050919050565b5f6119aa8261197f565b9050919050565b5f6119bb826119a0565b9050919050565b6119cb816119b1565b82525050565b5f6020820190506119e45f8301846119c2565b92915050565b5f602082840312156119ff576119fe61180b565b5b5f611a0c84828501611859565b91505092915050565b5f819050919050565b611a2781611a15565b82525050565b5f602082019050611a405f830184611a1e565b92915050565b5f5f5f60608486031215611a5d57611a5c61180b565b5b5f611a6a86828701611859565b9350506020611a7b86828701611859565b9250506040611a8c8682870161188c565b9150509250925092565b611a9f81611832565b82525050565b5f602082019050611ab85f830184611a96565b92915050565b611ac781611a15565b8114611ad1575f5ffd5b50565b5f81359050611ae281611abe565b92915050565b611af181611911565b8114611afb575f5ffd5b50565b5f81359050611b0c81611ae8565b92915050565b611b1b81611945565b8114611b25575f5ffd5b50565b5f81359050611b3681611b12565b92915050565b5f5f5f5f5f5f5f60e0888a031215611b5757611b5661180b565b5b5f611b648a828b01611859565b9750506020611b758a828b01611859565b9650506040611b868a828b0161188c565b9550506060611b978a828b01611ad4565b9450506080611ba88a828b01611afe565b93505060a0611bb98a828b01611b28565b92505060c0611bca8a828b01611b28565b91505092959891949750929550565b5f611be3826119a0565b9050919050565b611bf381611bd9565b82525050565b5f602082019050611c0c5f830184611bea565b92915050565b7f4e487b71000000000000000000000000000000000000000000000000000000005f52602260045260245ffd5b5f6002820490506001821680611c5657607f821691505b602082108103611c6957611c68611c12565b5b50919050565b7f5465737453524332303a2063616c6c6572206973206e6f742061646d696e00005f82015250565b5f611ca3601e8361177c565b9150611cae82611c6f565b602082019050919050565b5f6020820190508181035f830152611cd081611c97565b9050919050565b7f4e487b71000000000000000000000000000000000000000000000000000000005f52601160045260245ffd5b5f611d0e8261186d565b9150611d198361186d565b9250828203905081811115611d3157611d30611cd7565b5b92915050565b7f5045524d49545f444541444c494e455f455850495245440000000000000000005f82015250565b5f611d6b60178361177c565b9150611d7682611d37565b602082019050919050565b5f6020820190508181035f830152611d9881611d5f565b9050919050565b611da88161186d565b82525050565b5f60c082019050611dc15f83018961194e565b611dce6020830188611a96565b611ddb6040830187611a96565b611de86060830186611d9f565b611df56080830185611a1e565b611e0260a0830184611a1e565b979650505050505050565b5f81905092915050565b7f19010000000000000000000000000000000000000000000000000000000000005f82015250565b5f611e4b600283611e0d565b9150611e5682611e17565b600282019050919050565b5f819050919050565b611e7b611e7682611945565b611e61565b82525050565b5f611e8b82611e3f565b9150611e978285611e6a565b602082019150611ea78284611e6a565b6020820191508190509392505050565b5f608082019050611eca5f83018761194e565b611ed7602083018661191d565b611ee4604083018561194e565b611ef1606083018461194e565b95945050505050565b7f494e56414c49445f5349474e45520000000000000000000000000000000000005f82015250565b5f611f2e600e8361177c565b9150611f3982611efa565b602082019050919050565b5f6020820190508181035f830152611f5b81611f22565b9050919050565b5f819050919050565b611f7c611f778261186d565b611f62565b82525050565b5f611f8d8284611f6b565b60208201915081905092915050565b5f81519050919050565b5f82825260208201905092915050565b5f611fc082611f9c565b611fca8185611fa6565b9350611fda81856020860161178c565b611fe38161179a565b840191505092915050565b5f6020820190508181035f8301526120068184611fb6565b905092915050565b5f5ffd5b7f4e487b71000000000000000000000000000000000000000000000000000000005f52604160045260245ffd5b6120488261179a565b810181811067ffffffffffffffff8211171561206757612066612012565b5b80604052505050565b5f612079611802565b9050612085828261203f565b919050565b5f67ffffffffffffffff8211156120a4576120a3612012565b5b602082029050602081019050919050565b5f5ffd5b5f815190506120c781611b12565b92915050565b5f6120df6120da8461208a565b612070565b90508083825260208201905060208402830185811115612102576121016120b5565b5b835b8181101561212b578061211788826120b9565b845260208401935050602081019050612104565b5050509392505050565b5f82601f8301126121495761214861200e565b5b81516121598482602086016120cd565b91505092915050565b5f67ffffffffffffffff82111561217c5761217b612012565b5b602082029050602081019050919050565b5f5ffd5b5f67ffffffffffffffff8211156121ab576121aa612012565b5b6121b48261179a565b9050602081019050919050565b5f6121d36121ce84612191565b612070565b9050828152602081018484840111156121ef576121ee61218d565b5b6121fa84828561178c565b509392505050565b5f82601f8301126122165761221561200e565b5b81516122268482602086016121c1565b91505092915050565b5f61224161223c84612162565b612070565b90508083825260208201905060208402830185811115612264576122636120b5565b5b835b818110156122ab57805167ffffffffffffffff8111156122895761228861200e565b5b8086016122968982612202565b85526020850194505050602081019050612266565b5050509392505050565b5f82601f8301126122c9576122c861200e565b5b81516122d984826020860161222f565b91505092915050565b5f5f604083850312156122f8576122f761180b565b5b5f83015167ffffffffffffffff8111156123155761231461180f565b5b61232185828601612135565b925050602083015167ffffffffffffffff8111156123425761234161180f565b5b61234e858286016122b5565b9150509250929050565b7f4e487b71000000000000000000000000000000000000000000000000000000005f52603260045260245ffd5b61238e816118de565b8114612398575f5ffd5b50565b5f815190506123a981612385565b92915050565b5f602082840312156123c4576123c361180b565b5b5f6123d18482850161239b565b91505092915050565b5f602082840312156123ef576123ee61180b565b5b5f6123fc848285016120b9565b91505092915050565b5f6040820190506124185f830185611a96565b818103602083015261242a8184611fb6565b90509392505050565b5f602082840312156124485761244761180b565b5b5f82015167ffffffffffffffff8111156124655761246461180f565b5b61247184828501612202565b91505092915050565b5f81905092915050565b5f819050815f5260205f209050919050565b5f81546124a281611c3f565b6124ac818661247a565b9450600182165f81146124c657600181146124db5761250d565b60ff198316865281151582028601935061250d565b6124e485612484565b5f5b83811015612505578154818901526001820191506020810190506124e6565b838801955050505b50505092915050565b5f6125218284612496565b915081905092915050565b5f60a08201905061253f5f83018861194e565b61254c602083018761194e565b612559604083018661194e565b6125666060830185611a1e565b6125736080830184611a96565b9695505050505050565b5f6125878261186d565b91506125928361186d565b92508282019050808211156125aa576125a9611cd7565b5b9291505056fea26469706673582212207be028421935c189446c5f247895eb3c50a6a64017809aa0ee2eedb73bef1fd564736f6c637829302e382e33312d646576656c6f702e323032352e31312e31322b636f6d6d69742e3637366264656363005a",
    "linkReferences": {}
  },
  "methodIdentifiers": {
    "DIRECTORY_ADDRESS()": "ba1ab291",
    "DOMAIN_SEPARATOR()": "3644e515",
    "INTELLIGENCE_ADDRESS()": "b9b8dea0",
    "admin()": "f851a440",
    "allowance(address)": "3e5beab9",
    "approve(address,suint256)": "2e62b8c8",
    "balance()": "b69ef8a8",
    "burn(address,suint256)": "68787310",
    "decimals()": "313ce567",
    "directory()": "c41c2f24",
    "getTotalSupply()": "c4e41b22",
    "intelligence()": "3d27862e",
    "mint(address,suint256)": "d590f35f",
    "name()": "06fdde03",
    "nonces(address)": "7ecebe00",
    "permit(address,address,suint256,uint256,uint8,bytes32,bytes32)": "bdda9413",
    "symbol()": "95d89b41",
    "transfer(address,suint256)": "b10c99b5",
    "transferFrom(address,address,suint256)": "9552331e"
  },
  "id": 19
}