{
  "abi": [
    {
      "type": "constructor",
      "inputs": [],
      "stateMutability": "nonpayable"
    },
    {
      "type": "function",
      "name": "admin",
      "inputs": [],
      "outputs": [
        {
          "name": "",
          "type": "address",
          "internalType": "address"
        }
      ],
      "stateMutability": "view"
    },
    {
      "type": "function",
      "name": "approve",
      "inputs": [
        {
          "name": "spender",
          "type": "address",
          "internalType": "address"
        },
        {
          "name": "amount",
          "type": "suint256",
          "internalType": "suint256"
        }
      ],
      "outputs": [
        {
          "name": "",
          "type": "bool",
          "internalType": "bool"
        }
      ],
      "stateMutability": "nonpayable"
    },
    {
      "type": "function",
      "name": "balanceOf",
      "inputs": [],
      "outputs": [
        {
          "name": "",
          "type": "uint256",
          "internalType": "uint256"
        }
      ],
      "stateMutability": "view"
    },
    {
      "type": "function",
      "name": "burn",
      "inputs": [
        {
          "name": "from",
          "type": "address",
          "internalType": "address"
        },
        {
          "name": "amount",
          "type": "suint256",
          "internalType": "suint256"
        }
      ],
      "outputs": [],
      "stateMutability": "nonpayable"
    },
    {
      "type": "function",
      "name": "decimals",
      "inputs": [],
      "outputs": [
        {
          "name": "",
          "type": "uint8",
          "internalType": "uint8"
        }
      ],
      "stateMutability": "view"
    },
    {
      "type": "function",
      "name": "getTotalSupply",
      "inputs": [],
      "outputs": [
        {
          "name": "",
          "type": "uint256",
          "internalType": "uint256"
        }
      ],
      "stateMutability": "view"
    },
    {
      "type": "function",
      "name": "mint",
      "inputs": [
        {
          "name": "to",
          "type": "address",
          "internalType": "address"
        },
        {
          "name": "amount",
          "type": "suint256",
          "internalType": "suint256"
        }
      ],
      "outputs": [],
      "stateMutability": "nonpayable"
    },
    {
      "type": "function",
      "name": "name",
      "inputs": [],
      "outputs": [
        {
          "name": "",
          "type": "string",
          "internalType": "string"
        }
      ],
      "stateMutability": "view"
    },
    {
      "type": "function",
      "name": "symbol",
      "inputs": [],
      "outputs": [
        {
          "name": "",
          "type": "string",
          "internalType": "string"
        }
      ],
      "stateMutability": "view"
    },
    {
      "type": "function",
      "name": "transfer",
      "inputs": [
        {
          "name": "to",
          "type": "address",
          "internalType": "address"
        },
        {
          "name": "amount",
          "type": "suint256",
          "internalType": "suint256"
        }
      ],
      "outputs": [
        {
          "name": "",
          "type": "bool",
          "internalType": "bool"
        }
      ],
      "stateMutability": "nonpayable"
    },
    {
      "type": "function",
      "name": "transferFrom",
      "inputs": [
        {
          "name": "from",
          "type": "address",
          "internalType": "address"
        },
        {
          "name": "to",
          "type": "address",
          "internalType": "address"
        },
        {
          "name": "amount",
          "type": "suint256",
          "internalType": "suint256"
        }
      ],
      "outputs": [
        {
          "name": "",
          "type": "bool",
          "internalType": "bool"
        }
      ],
      "stateMutability": "nonpayable"
    }
  ],
  "bytecode": {
    "object": "0x60a060405234801561000f575f5ffd5b506040518060400160405280600981526020017f54657374535243323000000000000000000000000000000000000000000000008152506040518060400160405280600481526020017f54535243000000000000000000000000000000000000000000000000000000008152506012825f908161008c9190610330565b50816001908161009c9190610330565b508060ff1660808160ff16815250505050503360055f6101000a81548173ffffffffffffffffffffffffffffffffffffffff021916908373ffffffffffffffffffffffffffffffffffffffff1602179055506103ff565b5f81519050919050565b7f4e487b71000000000000000000000000000000000000000000000000000000005f52604160045260245ffd5b7f4e487b71000000000000000000000000000000000000000000000000000000005f52602260045260245ffd5b5f600282049050600182168061016e57607f821691505b6020821081036101815761018061012a565b5b50919050565b5f819050815f5260205f209050919050565b5f6020601f8301049050919050565b5f82821b905092915050565b5f600883026101e37fffffffffffffffffffffffffffffffffffffffffffffffffffffffffffffffff826101a8565b6101ed86836101a8565b95508019841693508086168417925050509392505050565b5f819050919050565b5f819050919050565b5f61023161022c61022784610205565b61020e565b610205565b9050919050565b5f819050919050565b61024a83610217565b61025e61025682610238565b8484546101b4565b825550505050565b5f5f905090565b610275610266565b610280818484610241565b505050565b5b818110156102a3576102985f8261026d565b600181019050610286565b5050565b601f8211156102e8576102b981610187565b6102c284610199565b810160208510156102d1578190505b6102e56102dd85610199565b830182610285565b50505b505050565b5f82821c905092915050565b5f6103085f19846008026102ed565b1980831691505092915050565b5f61032083836102f9565b9150826002028217905092915050565b610339826100f3565b67ffffffffffffffff811115610352576103516100fd565b5b61035c8254610157565b6103678282856102a7565b5f60209050601f831160018114610398575f8415610386578287015190505b6103908582610315565b8655506103f7565b601f1984166103a686610187565b5f5b828110156103cd578489015182556001820191506020850194506020810190506103a8565b868310156103ea57848901516103e6601f8916826102f9565b8355505b6001600288020188555050505b505050505050565b608051610d126104175f395f61033c0152610d125ff3fe608060405234801561000f575f5ffd5b50600436106100a7575f3560e01c80639552331e1161006f5780639552331e1461015157806395d89b4114610181578063b10c99b51461019f578063c4e41b22146101cf578063d590f35f146101ed578063f851a44014610209576100a7565b806306fdde03146100ab5780632e62b8c8146100c9578063313ce567146100f95780636878731014610117578063722713f714610133575b5f5ffd5b6100b3610227565b6040516100c0919061095e565b60405180910390f35b6100e360048036038101906100de9190610a0f565b6102b2565b6040516100f09190610a67565b60405180910390f35b61010161033a565b60405161010e9190610a9b565b60405180910390f35b610131600480360381019061012c9190610a0f565b61035e565b005b61013b6103fb565b6040516101489190610acc565b60405180910390f35b61016b60048036038101906101669190610ae5565b61043f565b6040516101789190610a67565b60405180910390f35b610189610615565b604051610196919061095e565b60405180910390f35b6101b960048036038101906101b49190610a0f565b6106a1565b6040516101c69190610a67565b60405180910390f35b6101d7610749565b6040516101e49190610acc565b60405180910390f35b61020760048036038101906102029190610a0f565b610757565b005b6102116107f4565b60405161021e9190610b44565b60405180910390f35b5f805461023390610b8a565b80601f016020809104026020016040519081016040528092919081815260200182805461025f90610b8a565b80156102aa5780601f10610281576101008083540402835291602001916102aa565b820191905f5260205f20905b81548152906001019060200180831161028d57829003601f168201915b505050505081565b5f8160045f3373ffffffffffffffffffffffffffffffffffffffff1673ffffffffffffffffffffffffffffffffffffffff1681526020019081526020015f205f8573ffffffffffffffffffffffffffffffffffffffff1673ffffffffffffffffffffffffffffffffffffffff1681526020019081526020015f208190b1506001905092915050565b7f000000000000000000000000000000000000000000000000000000000000000081565b60055f9054906101000a900473ffffffffffffffffffffffffffffffffffffffff1673ffffffffffffffffffffffffffffffffffffffff163373ffffffffffffffffffffffffffffffffffffffff16146103ed576040517f08c379a00000000000000000000000000000000000000000000000000000000081526004016103e490610c04565b60405180910390fd5b6103f78282610819565b5050565b5f60035f3373ffffffffffffffffffffffffffffffffffffffff1673ffffffffffffffffffffffffffffffffffffffff1681526020019081526020015f20b0905090565b5f5f60045f8673ffffffffffffffffffffffffffffffffffffffff1673ffffffffffffffffffffffffffffffffffffffff1681526020019081526020015f205f3373ffffffffffffffffffffffffffffffffffffffff1673ffffffffffffffffffffffffffffffffffffffff1681526020019081526020015f20b090507fffffffffffffffffffffffffffffffffffffffffffffffffffffffffffffffff811461056c5782816104ef9190610c4f565b60045f8773ffffffffffffffffffffffffffffffffffffffff1673ffffffffffffffffffffffffffffffffffffffff1681526020019081526020015f205f3373ffffffffffffffffffffffffffffffffffffffff1673ffffffffffffffffffffffffffffffffffffffff1681526020019081526020015f208190b1505b8260035f8773ffffffffffffffffffffffffffffffffffffffff1673ffffffffffffffffffffffffffffffffffffffff1681526020019081526020015f205f8282b06105b89190610c4f565b9250508190b1508260035f8673ffffffffffffffffffffffffffffffffffffffff1673ffffffffffffffffffffffffffffffffffffffff1681526020019081526020015f205f8282b0019250508190b15060019150509392505050565b6001805461062290610b8a565b80601f016020809104026020016040519081016040528092919081815260200182805461064e90610b8a565b80156106995780601f1061067057610100808354040283529160200191610699565b820191905f5260205f20905b81548152906001019060200180831161067c57829003601f168201915b505050505081565b5f8160035f3373ffffffffffffffffffffffffffffffffffffffff1673ffffffffffffffffffffffffffffffffffffffff1681526020019081526020015f205f8282b06106ee9190610c4f565b9250508190b1508160035f8573ffffffffffffffffffffffffffffffffffffffff1673ffffffffffffffffffffffffffffffffffffffff1681526020019081526020015f205f8282b0019250508190b1506001905092915050565b5f61075261087f565b905090565b60055f9054906101000a900473ffffffffffffffffffffffffffffffffffffffff1673ffffffffffffffffffffffffffffffffffffffff163373ffffffffffffffffffffffffffffffffffffffff16146107e6576040517f08c379a00000000000000000000000000000000000000000000000000000000081526004016107dd90610c04565b60405180910390fd5b6107f08282610888565b5050565b60055f9054906101000a900473ffffffffffffffffffffffffffffffffffffffff1681565b8060035f8473ffffffffffffffffffffffffffffffffffffffff1673ffffffffffffffffffffffffffffffffffffffff1681526020019081526020015f205f8282b06108659190610c4f565b9250508190b1508060025f8282b0039250508190b1505050565b5f6002b0905090565b8060025f8282b06108999190610c82565b9250508190b1508060035f8473ffffffffffffffffffffffffffffffffffffffff1673ffffffffffffffffffffffffffffffffffffffff1681526020019081526020015f205f8282b0019250508190b1505050565b5f81519050919050565b5f82825260208201905092915050565b8281835e5f83830152505050565b5f601f19601f8301169050919050565b5f610930826108ee565b61093a81856108f8565b935061094a818560208601610908565b61095381610916565b840191505092915050565b5f6020820190508181035f8301526109768184610926565b905092915050565b5f5ffd5b5f73ffffffffffffffffffffffffffffffffffffffff82169050919050565b5f6109ab82610982565b9050919050565b6109bb816109a1565b81146109c5575f5ffd5b50565b5f813590506109d6816109b2565b92915050565b5f819050919050565b6109ee816109dc565b81146109f8575f5ffd5b50565b5f81359050610a09816109e5565b92915050565b5f5f60408385031215610a2557610a2461097e565b5b5f610a32858286016109c8565b9250506020610a43858286016109fb565b9150509250929050565b5f8115159050919050565b610a6181610a4d565b82525050565b5f602082019050610a7a5f830184610a58565b92915050565b5f60ff82169050919050565b610a9581610a80565b82525050565b5f602082019050610aae5f830184610a8c565b92915050565b5f819050919050565b610ac681610ab4565b82525050565b5f602082019050610adf5f830184610abd565b92915050565b5f5f5f60608486031215610afc57610afb61097e565b5b5f610b09868287016109c8565b9350506020610b1a868287016109c8565b9250506040610b2b868287016109fb565b9150509250925092565b610b3e816109a1565b82525050565b5f602082019050610b575f830184610b35565b92915050565b7f4e487b71000000000000000000000000000000000000000000000000000000005f52602260045260245ffd5b5f6002820490506001821680610ba157607f821691505b602082108103610bb457610bb3610b5d565b5b50919050565b7f5465737453524332303a2063616c6c6572206973206e6f742061646d696e00005f82015250565b5f610bee601e836108f8565b9150610bf982610bba565b602082019050919050565b5f6020820190508181035f830152610c1b81610be2565b9050919050565b7f4e487b71000000000000000000000000000000000000000000000000000000005f52601160045260245ffd5b5f610c59826109dc565b9150610c64836109dc565b9250828203905081811115610c7c57610c7b610c22565b5b92915050565b5f610c8c826109dc565b9150610c97836109dc565b9250828201905080821115610caf57610cae610c22565b5b9291505056fea264697066735822122087b03dfa51ee78cd7f555ab59f29f92d58c0f344536038940497e5197349f3a964736f6c637829302e382e33312d646576656c6f702e323032352e31312e31322b636f6d6d69742e3637366264656363005a",
    "linkReferences": {}
  },
  "methodIdentifiers": {
    "admin()": "f851a440",
    "approve(address,suint256)": "2e62b8c8",
    "balanceOf()": "722713f7",
    "burn(address,suint256)": "68787310",
    "decimals()": "313ce567",
    "getTotalSupply()": "c4e41b22",
    "mint(address,suint256)": "d590f35f",
    "name()": "06fdde03",
    "symbol()": "95d89b41",
    "transfer(address,suint256)": "b10c99b5",
    "transferFrom(address,address,suint256)": "9552331e"
  },
  "id": 17
}